:100000000C94B3000C94D4000C94D4000C94D40041
:100010000C94D4000C9472030C944D030C94D400F3
:100020000C94D4000C94D4000C94D4000C94D40000
:100030000C94D4000C94D4000C94D4000C94D400F0
:100040000C94D4000C94D4000C94D4000C94D400E0
:100050000C94D4000C94D4000C94D4000C94D400D0
:100060000C94D4000C94B7030C94D4000C94D400DA
:100070000C94D4000C94D4000C94D4000C94D400B0
:100080000C94D4000C94D4000C94D4000C94D400A0
:100090000C94D4000C94D4000C94D4000C94D40090
:1000A0000C94D4000C94D4000C94D4000C94D40080
:1000B0000C94D4000C94D4000C94D4000C94D40070
:1000C0000C94D4000C94D4000C94D4000C94D40060
:1000D0000C94D4000C94D4000C94D4000C94D40050
:1000E0000C94D40007634236B79BD8A71A396856D8
:1000F00018AEBAAB558C1D3CB7CC5763BD6DEDFD4A
:10010000753EF6177231BF000000803F0800000006
:10011000BE922449123EABAAAA2ABECDCCCC4C3EFC
:1001200000000080BEABAAAAAA3E00000000BF00EB
:100130000000803F0000000000084178D3BB4387E7
:10014000D1133D190E3CC3BD4282AD2B3E68EC82FB
:1001500076BED98FE1A93E4C80EFFFBE01C4FF7F80
:100160003F000000000011241FBECFEFD1E2DEBF30
:10017000CDBF00E00CBF14E0A0E0B2E0E2EDF0E2A1
:1001800000E00BBF02C007900D92A439B107D9F768
:1001900015E0A4E9B4E001C01D92AC32B107E1F76B
:1001A0000E941B0B0C9467100C94000086E69EE0E6
:1001B0000197F1F700004098419880E388B9429A8E
:1001C000EFEFF7E43197F1F700C000004298E6E660
:1001D000FEE03197F1F700004098419888B9429AC3
:1001E000EFEFF7E43197F1F700C000004298E6E640
:1001F000FEE03197F1F700004098419888B9429AA3
:100200008FEF97E40197F1F700C000004298E6E60F
:10021000FEE03197F1F700004098419880E288B9FC
:10022000429A8FEF97E40197F1F700C000004298DF
:10023000089598B19F7098B998B1282F207F922B7C
:1002400098B940984198429AEFEFF7E43197F1F767
:1002500000C00000429898B19F7098B998B18295FB
:10026000807F892B88B940984198429A8FEF97E414
:100270000197F1F700C000004298089586E69EE0DD
:100280000197F1F7000088E20E94190181E00E94C5
:10029000190186E00E9419018EE00E94190180E890
:1002A0000E941901089598B19F7098B998B1282FAC
:1002B000207F922B98B9409A4198429AEFEFF7E449
:1002C0003197F1F700C00000429898B19F7098B93B
:1002D00098B18295807F892B88B9409A4198429A3B
:1002E0008FEF97E40197F1F700C00000429808955E
:1002F00080E80E9419010895CF93DF93EC01888173
:10030000882331F021960E94530189918823D9F7DF
:10031000DF91CF910895823079F0833018F48130E5
:10032000C9F405C0833069F08430A1F40FC0862F72
:1003300081580E9419010895862F81540E94190145
:100340000895862F8D560E9419010895862F8D528B
:100350000E94190108950F931F93CF93DF938A0191
:10036000E901882311F0662319F40E94780102C084
:100370000E948B01C530D10571F4C80160E177E2BC
:100380000E945310CB01C0969093F0048093EF0429
:100390000E94530103C0C430D105B9F4C80168EE0E
:1003A00073E00E945310CB017093F4046093F30444
:1003B0006AE070E00E945310C09690932B058093E2
:1003C0002A050E94530181E001C080E0C330D105BD
:1003D00011F08130B1F4C80164E670E00E9453105E
:1003E000CB017093F4046093F3046AE070E00E9420
:1003F0005310C09690932705809326050E945301C1
:1004000081E0C230D10511F08130B1F42AE030E052
:10041000C801B9010E945310CB017093F40460939A
:10042000F304B9010E945310C09690932105809364
:1004300020050E94530181E0C130D10511F08130C7
:1004400061F4C8016AE070E00E945310C096909376
:100450002905809328050E945301C630D1051CF060
:1004600085E40E945301DF91CF911F910F91089570
:10047000259A2D9A0895269A2E9A0895E1E8F0E09B
:1004800010828CEF8093850081E08093840093E05C
:10049000909389008FEF8093880090938B008093D6
:1004A0008A0090938D0080938C00909387008093B6
:1004B00086008BEA80938000109282008CE080831B
:1004C000089510928900682F70E080E090E00E940B
:1004D000FD0D2BE734E14EEE5FE30E94640D20E05A
:1004E00030E04CE052E40E94000D0E94D10D609378
:1004F0008800089510928B00682F70E080E090E0F3
:100500000E94FD0D2BE734E14EEE5FE30E94640D87
:1005100020E030E04CE052E40E94000D0E94D10D3A
:1005200060938A00089583E0809389008FEF809321
:100530008800089583E080938B008FEF80938A007A
:100540000895CF93DF93EC01809180049091810412
:10055000C817D907ACF40E947A0280918004909168
:10056000810401979093810480938004ECECF4E67D
:100570003197F1F700C000008C179D0761F717C095
:100580008C179D07A4F40E947A02809180049091B8
:10059000810401969093810480938004ECECF4E64E
:1005A0003197F1F700C000008C179D0761F7DF91CC
:1005B000CF910895CF93DF93EC01809182049091C5
:1005C0008304C817D907ACF40E94610280918204A9
:1005D0009091830401979093830480938204ECECC0
:1005E000F4E63197F1F700C000008C179D0761F722
:1005F00017C08C179D07A4F40E94610280918204A9
:100600009091830401969093830480938204ECEC90
:10061000F4E63197F1F700C000008C179D0761F7F1
:10062000DF91CF91089587B1876F87B988B18078BE
:1006300088B9089510BA11BA1092070110920801F2
:10064000089581B18F6081B982B1807F82B9EAE07B
:10065000F1E0808188618083EBE0F1E08081886156
:10066000808308956C98749A08956D98759A08958A
:100670003B9A43980895F894EAE6F0E0808182601E
:100680008083EC9A78940895F894EAE6F0E080810B
:1006900088608083ED9A789408951F920F920FB628
:1006A0000F9211248F939F93AF93BF9380919404E3
:1006B00090919504A0919604B09197040196A11D84
:1006C000B11D8093940490939504A0939604B093E5
:1006D0009704BF91AF919F918F910F900FBE0F9094
:1006E0001F9018951F920F920FB60F9211248F939F
:1006F0009F93AF93BF938091980490919904A09198
:100700009A04B0919B040196A11DB11D8093980499
:1007100090939904A0939A04B0939B04BF91AF91D6
:100720009F918F910F900FBE0F901F901895E1EC45
:10073000F0E010821092C00086E08093C2008FE546
:100740008093C4001092C50088E980830895E1ED8C
:10075000F0E010821092D00086E08093D2008FE506
:100760008093D4001092D50088E9808308951F9269
:100770000F920FB60F920BB60F9211248F939F9387
:10078000EF93FF93E6ECF0E080818083E091A20498
:10079000F091A30490E0EE0FFF1FEC55FB4F918307
:1007A0008083E091A204F091A304EE0FFF1FEC55AB
:1007B000FB4F808191818134910561F481E090E06B
:1007C0009093DE048093DD048FEF9FEF9093A3045A
:1007D0008093A204E091A204F091A304EE0FFF1F06
:1007E000EC55FB4F808191818234910561F481E069
:1007F00090E09093DC048093DB048FEF9FEF909365
:10080000A3048093A204E091A204F091A304EE0F4C
:10081000FF1FEC55FB4F808191818334910561F47A
:1008200081E090E09093DA048093D9048FEF9FEFFA
:100830009093A3048093A2048091A2049091A304B6
:1008400001969093A3048093A204FF91EF919F914E
:100850008F910F900BBE0F900FBE0F901F901895A9
:1008600092B1907F8F70982B92B9089586E00E9484
:100870003004089589E00E943004089585E00E94C4
:10088000300408958AE00E943004089582E00E94B6
:100890003004089584E00E943004089580E00E94AE
:1008A000300408950F931F93682F70E080E090E06C
:1008B0000E94FD0D2FEE39EC43E95FE30E94EE0E3E
:1008C000B62FA72F382F292F60E070E080E89FE334
:1008D000422F0B2F1A2F232F342FA90198010E948A
:1008E000640D2AE939EF4EE255E40E948B0E20E0B8
:1008F00030E040E251E40E948B0E0E94CC0D88272C
:1009000077FD8095982F0E94FF0D0E94CC0D862FB9
:10091000972F23E08132920710F080E293E01F913D
:100920000F9108950F931F93CF93BC0180E090E047
:100930000E94FD0D28E431EE42E850E40E94640D6F
:100940000E94D10DDC01CB01A0E0B0E01092940434
:1009500010929504109296041092970410929804A5
:100960001092990410929A0410929B04F1E0C0E056
:10097000409194045091950460919604709197046D
:10098000009198041091990420919A0430919B044D
:10099000EF2F481759076A077B0708F4EC2FEE235F
:1009A00049F44F2F081719072A073B0708F44C2F63
:1009B0004423F1F2CF911F910F910895BC0180E083
:1009C00090E00E94FD0D25EE30ED4AEA50E40E94D1
:1009D000640D0E94D10D462F572F682F792F10924A
:1009E00094041092950410929604109297048091AA
:1009F000940490919504A0919604B091970448179F
:100A000059076A077B0798F70895CF93DF93EC01A6
:100A10000E943604CE010E94DE04DF91CF9108953A
:100A2000CF93DF93EC010E943A04CE010E94DE04D2
:100A3000DF91CF910895CF93DF93EC010E943E04A4
:100A4000CE010E949204DF91CF910895CF93DF935E
:100A5000EC010E944204CE010E949204DF91CF91EA
:100A600008950E9421030E9432030E9435030E94D0
:100A700038030E9413030E941A030E9438020E9446
:100A80003B020895E1E2F1E010828FEF80932501AF
:100A900091E09093240110922901809328011092F3
:100AA0002B0180932A0110922D0180932C0189EA59
:100AB000809320018BE080830895EAE7F0E01082C4
:100AC00010927B0080E280937C0080E880BF86E803
:100AD00080830895883018F098E090937B008770A9
:100AE000806280937C00EAE7F0E08081806480830C
:100AF000808184FFFDCF80917900EAE7F0E090816A
:100B00009061908310927B000895CF93DF93D82F4C
:100B1000C62F842F0E946A05482F80931D058D2FB4
:100B20006C2F50E023E030E00E94AB01DF91CF91C9
:100B300008958093280160932A010895F8940E94F3
:100B400031050E945D050E9442050E943E020E94FE
:100B500097030E94A7030E943B030E9444037894DA
:100B6000089586B1886088B9089586B1877F88B96D
:100B70000895CF93DF93EC0188EC68EC0E9499050F
:100B8000CE010E941B0582E00E946A058093B10499
:100B900090E020918C0430918D04281739077CF067
:100BA0000E943E0482E00E946A058093B10490E0B6
:100BB00020918C0430918D04281739078CF782E33B
:100BC00093EBA2E081509040A040E1F700C000C04C
:100BD0000E944E04DF91CF910895CF93DF93EC01F3
:100BE00088EC68EC0E949905CE010E94260582E0FF
:100BF0000E946A058093B10490E020918C043091AA
:100C00008D04281739077CF00E94420482E00E947C
:100C10006A058093B10490E020918C0430918D049A
:100C2000281739078CF782E393EBA2E081509040BC
:100C3000A040E1F700C000C00E944E04DF91CF91B8
:100C4000089520919204309193042817390789F46C
:100C500088EC68EC0E949905809184049091850449
:100C60000E94B90588E097E09093E8048093E70438
:100C70003BC020919004309191042817390789F4E2
:100C800088EC68EC0E949905809186049091870415
:100C90000E94ED0585E893E09093E8048093E704D3
:100CA00023C020918E0430918F042817390789F4CE
:100CB00088EC68EC0E9499058091860490918704E5
:100CC0000E94B90586E893E09093E8048093E704D6
:100CD0000BC02091E1043091E2042817390721F478
:100CE0001092E8041092E7048091E1049091E204EC
:100CF0009093E0048093DF0408952091E104309103
:100D0000E2042817390789F488EC68EC0E949905F9
:100D100080918404909185040E94B90588E097E051
:100D20009093E8048093E7043BC020918E043091B7
:100D30008F042817390789F488EC68EC0E9499051C
:100D400080918604909187040E94ED0585E893E0E8
:100D50009093E8048093E70423C02091900430919D
:100D600091042817390789F488EC68EC0E949905EA
:100D700080918604909187040E94B90586E893E0EB
:100D80009093E8048093E7040BC020919204309183
:100D900093042817390721F41092E8041092E7040D
:100DA00080919204909193049093E0048093DF04E7
:100DB000089520918E0430918F042817390789F403
:100DC00088EC68EC0E9499058091840490918504D8
:100DD0000E94B90588E097E09093E8048093E704C7
:100DE0003BC020919204309193042817390789F46D
:100DF00088EC68EC0E9499058091860490918704A4
:100E00000E94ED0585E893E09093E8048093E70461
:100E100023C02091E1043091E2042817390789F4B6
:100E200088EC68EC0E949905809186049091870473
:100E30000E94B90586E893E09093E8048093E70464
:100E40000BC020919004309191042817390721F4A8
:100E50001092E8041092E70480919004909191041C
:100E60009093E0048093DF040895209190043091E2
:100E700091042817390789F488EC68EC0E949905D9
:100E800080918404909185040E94B90588E097E0E0
:100E90009093E8048093E7043BC02091E1043091F3
:100EA000E2042817390789F488EC68EC0E94990558
:100EB00080918604909187040E94ED0585E893E077
:100EC0009093E8048093E70423C02091920430912A
:100ED00093042817390789F488EC68EC0E94990577
:100EE00080918604909187040E94B90586E893E07A
:100EF0009093E8048093E7040BC020918E04309116
:100F00008F042817390721F41092E8041092E7049F
:100F100080918E0490918F049093E0048093DF047D
:100F2000089583E00E946A058093B20482E00E94E3
:100F30006A058093B10481E00E946A058093B00441
:100F400081E061E043E00E94850581E065E042E0E8
:100F50000E94850581E069E041E00E94850540919D
:100F6000B20450E08091B10490E06091B00470E070
:100F70009A01280F391F260F371F273931050CF129
:100F80000E944E040E94B1058FEF9FE7A6E18150B9
:100F90009040A040E1F700C000000E94B5058FEF2F
:100FA0009FE7A6E181509040A040E1F700C000001B
:100FB0008CED6CED0E94990582E390E00E9405059E
:100FC000089520918C0430918D04281739073CF442
:100FD0000E9436048CED6CED0E949905A2CF241777
:100FE00035074CF40E944E0484EB64EB0E94990593
:100FF0000E944A0496CF261737074CF40E944E04ED
:1010000084EB64EB0E9499050E9446048ACF0E94FB
:101010004E0487CF83E00E946A058093B20482E089
:101020000E946A058093B10481E00E946A05809362
:10103000B00481E061E043E00E94850581E065E065
:1010400042E00E94850581E069E041E00E9485055B
:101050004091B20450E08091B10490E06091B004FE
:1010600070E09A01280F391F260F371F27393105E5
:10107000CCF00E944E040E94B1058FEF9FE7A6E1DD
:1010800081509040A040E1F700C000000E94B505EB
:101090008FEF9FE7A6E181509040A040E1F700C0AC
:1010A0000000089520918C0430918D042817390791
:1010B0004CF40E943A048CED6CED0E9499050E945C
:1010C0003A04A8CF241735074CF40E944E0480EA56
:1010D00068EC0E9499050E943A049CCF26173707B6
:1010E0004CF40E944E0488EC60EA0E9499050E942C
:1010F0003A0490CF0E944E048DCF0197FC01EE0F71
:10110000FF1FEE0FFF1FEE0FFF1FE050FE4F20816D
:1011100031812617370709F472C0FC01EE0FFF1F5B
:10112000EE0FFF1FEE0FFF1FE050FE4F22813381B5
:1011300026173707F9F0FC01EE0FFF1FEE0FFF1F18
:10114000EE0FFF1FE050FE4F248135812617370731
:10115000A1F0FC01EE0FFF1FEE0FFF1FEE0FFF1FB0
:10116000E050FE4F868197818617970779F483E0D8
:1011700090E005C081E090E002C082E090E09093B2
:101180001C0580931B05009741F00DC084E090E0A2
:1011900090931C0580931B0506C08091DF049091FD
:1011A000E0040E94210680911B0590911C0581306E
:1011B000910531F48091DF049091E0040E947D0656
:1011C00080911B0590911C058230910531F480912E
:1011D000DF049091E0040E94D90680911B05909154
:1011E0001C058330910531F48091DF049091E00477
:1011F0000E9435070E944E040E94910708951092A4
:101200001C0510921B05C9CFCF93DF93A62FB72FD4
:10121000E82FF92F20E030E06FEF7FE78D918823F2
:1012200041F440815181641775071CF0D22FC32F00
:10123000BA012F5F3F4F32962031310579F78D2F5C
:101240009C2FDF91CF910895CF93DF93EB01FB01AA
:10125000EE0FFF1FE80FF91F608171812FEF6F3FC5
:101260007207D9F00E94240980918A0490918B041E
:101270009093BA048093B9048091EB049091EC04AC
:10128000FC01EE0FFF1FE754FB4F2196D183C08373
:1012900001969093EC048093EB04DF91CF91089535
:1012A0002F923F924F925F926F927F928F929F9276
:1012B000AF92BF92CF92DF92EF92FF920F931F9364
:1012C000CF93DF93CDB7DEB7E5970FB6F894DEBFC7
:1012D0000FBECDBF9CAB8BAB8B01015010400F2ECE
:1012E000F1E1EF2EFF24F02DEC0EFD1E0F2EF9EF95
:1012F000CF2EF4E0DF2EF02DCE0101969AAB89AB14
:10130000CE01C196DE0111969601F7014FEF5FEF16
:101310006FEF7FE75D0141935193D9016D937D9309
:101320009D01D5011D925D01E817F907A1F7F801AC
:10133000EE0FFF1FE750FB4F118210820F2EFFE0D0
:10134000AF2EBB24F02D0F2EF9EF8F2EF4E09F2E41
:10135000F02D772473948E010F5E1F4F6E2C5F2C3F
:101360004C2C3D2C29A8BAA9BDABC401BE016F5FAE
:101370007F4F0E9404097C01E1E0F0E0EC0FFD1FCB
:10138000E80FF91F7082880F991F82959295907FC0
:101390009827807F9827ABA9BCA9A80FB91F662DF5
:1013A000752D442D532DE22DFDA9C701880F991FDE
:1013B0006401C80ED91EBAABA9AB81918823D1F4C0
:1013C000A9A9BAA98D919C911197009799F0D6017E
:1013D0002D913C91820F931FDA012D913C91119731
:1013E000821793073CF4DB01ED92FC92DA0111962F
:1013F0009C938E9389A99AA902969AAB89AB4E5F6A
:101400005F4F6E5F7F4FE017F107B9F60894A108B0
:10141000B108A114B10409F0A8CF6091E50470915E
:10142000E60461507040CE0141960E94240981E09B
:1014300090E09093EC048093EB04E5960FB6F8945B
:10144000DEBF0FBECDBFDF91CF911F910F91FF90F7
:10145000EF90DF90CF90BF90AF909F908F907F9054
:101460006F905F904F903F902F900895CF92DF92B2
:10147000EF92FF920F931F93CF93DF936C01FC01C8
:1014800082819381009709F48AC09093E604809347
:10149000E50440918A0450918B048417950709F460
:1014A0007EC0EE24FF246894E2F8EC0CFD1CC1E041
:1014B000D0E001E010E00CC09093E6048093E504D6
:1014C00040918A0450918B048417950709F467C0F2
:1014D00082E06CE022E030E00E94AB014091E50444
:1014E0005091E60482E06FE022E030E00E94AB0120
:1014F0006091E5047091E60480918A0490918B04D8
:101500000E947D0880918A0490918B0490938904B5
:10151000809388044091E5045091E60450938B0435
:1015200040938A04FE013196EE0FFF1FEC0DFD1D66
:10153000808191810097A9F44091B5045091B6043F
:1015400082E06AE021E030E00E94AB014091DF04DC
:101550005091E00482E06CE021E030E00E94AB01B9
:101560001EC09093E6048093E50482E06CE022E0E4
:1015700030E00E94AB014091E5045091E60482E026
:101580006FE022E030E00E94AB010F5F1F4FE801E7
:10159000F701819191917F01009709F08DCFDF9143
:1015A000CF911F910F91FF90EF90DF90CF90089512
:1015B0000E94B1058FEF9FEFA8E081509040A040BE
:1015C000E1F700C000000E94B5058FEF9FE3A2E0A5
:1015D00081509040A040E1F700C000000E94B1059A
:1015E0008FEF9FEFA8E081509040A040E1F700C04E
:1015F00000000E94B5058FEF9FE3A2E0815090406C
:10160000A040E1F700C000000E94B1058FEF9FEFFE
:10161000A8E081509040A040E1F700C000000E9487
:10162000B5058FEF9FE3A2E081509040A040E1F725
:1016300000C0000008950E949E050E94D6000E94EE
:101640003E018EE10E9461028FEF9FEFACE281507C
:101650009040A040E1F700C000000E9493020E9469
:101660009107C2E0D0E00F2EF6ECCF2EDD24F02D56
:101670000F2EF3E5EF2EF02D0F2EFDE04F2E55240B
:10168000F02D0F2EF9E06F2E7724F02D0F2EF5E0C0
:101690008F2E9924F02D09EB14E0FF246894F4F8C0
:1016A0000F2EF0E8AF2EF2E0BF2EF02D1092DE04E8
:1016B0001092DD041092DC041092DB041092DA0424
:1016C0001092D904D0938B04C0938A040E944E04D4
:1016D0008EE10E9461028FEF9FEFACE2815090405B
:1016E000A040E1F700C00000D601EC92EFEFF7ED6B
:1016F0003197F1F700C000008091DD049091DE0485
:10170000009729F49092E6048092E50415C0809138
:10171000DB049091DC04009729F47092E604609257
:10172000E5040AC08091D9049091DA04009721F46D
:101730005092E6044092E504D0938B04C0938A044F
:101740000E944E0440918A0450918B0482E06CE028
:101750009E010E94AB014091E5045091E60482E0B5
:101760006FE09E010E94AB0160918A0470918B042E
:101770006230710509F092C08091E5049091E60411
:101780008530910509F047C08EE190E00E94100578
:1017900080918604909187040E94ED050E94910734
:1017A0000E944E040E94D80A8AE50E9461028FEFCF
:1017B0009FEFACE281509040A040E1F700C00000F4
:1017C000D801EF2D1D92EA95E9F70E943A0488ECC2
:1017D00068EC0E94990588E790E00E9410050E943D
:1017E0000A0886E490E00E940505809186049091A5
:1017F00087040E94ED050E9436040E94910782E34F
:1018000090E00E94050560918A0470918B0462301B
:10181000710509F043C08091E5049091E60487309A
:101820009105E1F580918604909187040E94B905A5
:101830000E9491070E944E040E94D80A8AE50E94E5
:1018400061028FEF9FEFACE281509040A040E1F742
:1018500000C00000D801EF2D1D92EA95E9F70E9423
:101860003A0488EC68EC0E94990588E790E00E94B1
:1018700010050E940A0886E490E00E940505809108
:101880008604909187040E94B9050E9436040E9444
:10189000910782E390E00E9405054CC0D801EF2D2E
:1018A0001D92EA95E9F7C5010E945009C8010E94FE
:1018B000360A0E944E040E94D80A8AE50E946102FC
:1018C0008FEF9FEFACE281509040A040E1F700C065
:1018D0000000D801EF2D1D92EA95E9F70E943A0425
:1018E00088EC68EC0E94990588E790E00E9410055A
:1018F0000E940A0886E490E00E94050540918A044F
:1019000050918B0482E06CE09E010E94AB014091FB
:10191000E5045091E60482E06FE09E010E94AB0175
:1019200082E069E048E050E021E030E00E94AB0155
:101930000E944E0480918A0490918B048B30910513
:1019400009F18C3091052CF48930910509F050C0D3
:1019500008C08D30910539F18F30910509F048C0EC
:1019600035C080918604909187040E94ED050E9405
:1019700036040E9491070E94910782E390E00E9442
:10198000050536C080918604909187040E94B905B0
:101990000E9436040E9491070E94910782E390E022
:1019A0000E94050525C080918604909187040E94BD
:1019B000ED050E9436040E9491070E9491070E9443
:1019C000910782E390E00E94050512C08091860491
:1019D000909187040E94ED050E9436040E949107B1
:1019E0000E9491070E94910782E390E00E94050502
:1019F00084EB90E00E94ED050E944E0457CE5058B3
:101A0000BB27AA270ED04DC13ED130F043D120F0E4
:101A100031F49F3F11F41EF433C10EF4E095E7FB5F
:101A200029C1E92F4FD180F3BA17620773078407E2
:101A3000950718F071F49EF567C10EF4E0950B2E32
:101A4000BA2FA02D0B01B90190010C01CA01A00110
:101A50001124FF27591B99F0593F50F4503E68F16B
:101A60001A16F040A22F232F342F4427585FF3CFAC
:101A7000469537952795A795F0405395C9F77EF47D
:101A80001F16BA0B620B730B840BBAF09150A1F0C6
:101A9000FF0FBB1F661F771F881FC2F70EC0BA0F4C
:101AA000621F731F841F48F4879577956795B795D4
:101AB000F7959E3F08F0B3CF9395880F08F09927CC
:101AC000EE0F9795879508950CD0EBC0E3D040F0CA
:101AD000DAD030F021F45F3F19F0CCC0511115C1BC
:101AE000CFC0F0D098F39923C9F35523B1F3951BD8
:101AF000550BBB27AA2762177307840738F09F5F2F
:101B00005F4F220F331F441FAA1FA9F333D00E2E9D
:101B10003AF0E0E830D091505040E695001CCAF70A
:101B200029D0FE2F27D0660F771F881FBB1F2617CF
:101B300037074807AB07B0E809F0BB0B802DBF01A2
:101B4000FF2793585F4F2AF09E3F510568F092C0DF
:101B5000DCC05F3FECF3983EDCF3869577956795A4
:101B6000B795F7959F5FC9F7880F911D9695879553
:101B700097F90895E1E0660F771F881FBB1F621772
:101B800073078407BA0720F0621B730B840BBA0B30
:101B9000EE1F88F7E095089504D06894B111B5C0A0
:101BA000089598D088F09F5790F0B92F9927B75192
:101BB000A0F0D1F0660F771F881F991F1AF0BA9511
:101BC000C9F712C0B13081F09FD0B1E008959CC038
:101BD000672F782F8827B85F39F0B93FCCF3869507
:101BE00077956795B395D9F73EF490958095709564
:101BF00061957F4F8F4F9F4F0895E89409C097FBE1
:101C00003EF490958095709561957F4F8F4F9F4FD3
:101C10009923A9F0F92F96E9BB279395F695879517
:101C200077956795B795F111F8CFFAF4BB0F11F4DA
:101C300060FF1BC06F5F7F4F8F4F9F4F16C0882381
:101C400011F096E911C0772321F09EE8872F762FB7
:101C500005C0662371F096E8862F70E060E02AF0F8
:101C60009A95660F771F881FDAF7880F96958795E4
:101C700097F9089597F99F6780E870E060E008950C
:101C80009FEF80EC089500240A9416161706180694
:101C90000906089500240A94121613061406050670
:101CA0000895092E0394000C11F4882352F0BB0F01
:101CB00040F4BF2B11F460FF04C06F5F7F4F8F4F64
:101CC0009F4F089557FD9058440F551F59F05F3F9F
:101CD00071F04795880F97FB991F61F09F3F79F04E
:101CE00087950895121613061406551FF2CF4695D0
:101CF000F1DF08C0161617061806991FF1CF869552
:101D00007105610508940895E894BB276627772735
:101D1000CB0197F908950BD0C4CFB5DF28F0BADF17
:101D200018F0952309F0A6CFABCF1124EECFCADF70
:101D3000A0F3959FD1F3950F50E0551F629FF001DE
:101D4000729FBB27F00DB11D639FAA27F00DB11D37
:101D5000AA1F649F6627B00DA11D661F829F2227C0
:101D6000B00DA11D621F739FB00DA11D621F839F47
:101D7000A00D611D221F749F3327A00D611D231F1D
:101D8000849F600D211D822F762F6A2F11249F576B
:101D900050408AF0E1F088234AF0EE0FFF1FBB1F8E
:101DA000661F771F881F91505040A9F79E3F51052D
:101DB00070F060CFAACF5F3FECF3983EDCF38695DE
:101DC00077956795B795F795E7959F5FC1F7FE2BD8
:101DD000880F911D9695879597F90895FA01EE0F52
:101DE000FF1F30962105310599F16115710561F4E8
:101DF0008038BFE39B0749F168949038810561F012
:101E00008038BFEF9B0741F0992342F5FF3FE10582
:101E10003105210511F1E8940894E795D901AA2329
:101E200029F4AB2FBE2FF85FD0F310C0FF5F70F422
:101E3000A695E0F7F73950F019F0FF3A38F49F779C
:101E40009F930CD00F9007FC905808953EF018CF48
:101E500060E070E080E89FE308954FE79F775F932D
:101E60004F933F932F939ED02F913F914F915F912E
:101E700052DF05C019F40EF0FDCE46CF01CF2ADFA8
:101E8000C8F39638C0F707F80F92E8942BE33AEAC4
:101E900048EB5FE74EDF0F920F920F924DB75EB7A0
:101EA0000F92C0D0E4EEF0E016D04F915F91EF9129
:101EB000FF91E595EE1FFF1F49F0FE57E0684427AC
:101EC000EE0F441FFA95E1F74195550B32D00F9074
:101ED00007FE26C00895DF93CF931F930F93FF92C1
:101EE000EF92DF927B018C01689405C0DA2EEF013E
:101EF0001EDFFE01E894A5912591359145915591FC
:101F0000AEF3EF018EDDFE019701A801DA9479F7B7
:101F1000DF90EF90FF900F911F91CF91DF91089587
:101F20009B01AC0160E070E080E89FE3CDCDA2CEE4
:101F3000ACC0D0DEE8F39923D9F3940F511DBBF365
:101F40009150504094F059F0882332F0660F771F7B
:101F5000881F91505040C1F79E3F510544F7880FAC
:101F6000911D9695879597F908955F3FACF0983E3F
:101F70009CF0BB27869577956795B79508F4B16077
:101F80009395C1F7BB0F58F711F460FFE8CF6F5F6F
:101F90007F4F8F4F9F4FE3CFB8CE0EF076C070CEFD
:101FA000689468CE97DEC8F39923D1F3C6F3DF9324
:101FB000CF931F930F93FF92C92FDD2788232AF019
:101FC0002197660F771F881FDAF720E030E040E89E
:101FD0005FEB9FE3883920F0803E30F021968F77C9
:101FE0000FDDECE0F1E003C00BDDE9E3F1E073DFCE
:101FF0008B01BE01EC01FB2E6F5771097595771FA0
:10200000880B990BFCDD28E132E741E35FE38FDECB
:10201000AF2D9801AE01FF900F911F91CF91DF91ED
:1020200000DD3FCEFA01DC01AA0FBB1F9B01AC0112
:10203000BF5728F422273327442750781FC0B751B1
:1020400088F4AB2F0024469537952795011CA3955E
:10205000D2F3002069F0220F331F441FB395DAF347
:102060000DD0CDCC61307105A0E88A07B94630F4B7
:102070009B01AC016627772788279078309621F05E
:10208000208331834283538308959F3F31F09150E1
:1020900020F4879577956795B795880F911D96954C
:1020A000879597F90895AA1BBB1B51E107C0AA1F8A
:1020B000BB1FA617B70710F0A61BB70B881F991FE9
:1020C0005A95A9F780959095BC01CD010895F89493
:0220D000FFCF40
:1020D20000000000020000000600000003000100F2
:1020E20000000000040002000000000000000300E5
:1020F20000000000060000000A00020007000500C0
:1021020000000000080006000000000000000700B8
:10211200000000000A0000000E0006000B0009008B
:10212200000000000C000A000000000000000B008C
:10213200000000000E00000000000A000F000D0069
:102142000000000010000E000000000000000F0060
:10215200000001000000000000000000000000007C
:10216200000000000000000000000000000000006D
:10217200010000000100000000000100000000005A
:10218200000000000000000000000000000000004D
:10219200000001000000010000000000000000003B
:1021A200000000000000000000000000000000002D
:1021B200000000000100000000000000000000001C
:1021C200000000000000000000000000000000000D
:1021D20000000000000000000000010000000000FC
:1021E20000000000000000000000000000000000ED
:1021F20000000100000000000100000001000000DA
:1022020000000100000000000000000000000000CB
:1022120000000000000000000000010000000100BA
:1022220000000000000000000000000000000000AC
:10223200000000000000000000000000010000009B
:10224200000000000000000000000000000000008C
:10225200000000000000000000000000000000007C
:10226200000001000000000000000000000000006B
:10227200000000000000000000000100000000005B
:102282000100000001000000000001000000000049
:10229200000000000000000000000000000000003C
:1022A200000001000000010000000000000000002A
:1022B200000000000000000000000000000000001C
:1022C200000000000100000000000000000000000B
:1022D20000000000000000000000000000000000FC
:1022E20000000000000000000000010000000000EB
:1022F20000000000000000000000000000000000DC
:1023020000000100000000000100000001000000C8
:1023120000000000000000000000000000000000BB
:1023220000000000000000000000010000000100A9
:10233200000000000000000000000000000000009B
:10234200000000000000000000000000010000008A
:102352005A005A00B4003700180001000A000300B6
:042362000200010074
:00000001FF
